:100000000C94AE000C94E6000C94E6000C94E60010
:100010000C94E6000C94E6000C94E6000C94E600C8
:100020000C94E6000C94E6000C94F3160C94C6179E
:100030000C9444120C94E6000C94E6000C94E60038
:100040000C94E6000C94E6000C94E6000C94E60098
:100050000C94E6000C94BC120C94E6000C94E600A0
:100060000C94E6000C94E6000C94E6000C94E60078
:100070000C94E6000C94E6000C94E6000C94E60068
:100080000C94E6000C94E6000C94E6000C94E60058
:100090000C94E6000C94E6000C94E6000C94E60048
:1000A0000C94E6000C94E6000C94E600E0000600D8
:1000B0001900160354006800650020004B0065001D
:1000C0007900200056003200000014034400720042
:1000D0006F007000200049006E0063002E000000D9
:1000E0000403090409022200010100A0FA09040026
:1000F0000001030101000921110100012244000750
:1001000005810308000112010002000000089B3570
:100110000E0000020102000105010906A101050708
:1001200019E029E71500250195087501810295015F
:10013000750881010507190029FF150026FF0095A4
:100140000675088100050819012905150025019586
:100150000575019102950175039101C011241FBE1F
:10016000CFEFDAE0DEBFCDBF04B603FE18C080914A
:10017000AD019091AE01A091AF01B091B001873077
:10018000904BA740B04B59F41092AD011092AE01C4
:100190001092AF011092B001E0E0F8E3099511E090
:1001A000A0E0B1E0ECE9F4E302C005900D92A431C7
:1001B000B107D9F721E0A4E1B1E001C01D92AD3A49
:1001C000B207E1F70E94430F0C94191A0C94000037
:1001D000862B81110BC0433048F4E42FF0E0EE0F82
:1001E000FF1FE455FF4F85919591089581E090E0C0
:1001F00008950E94E800089581E0089581E008953F
:100200000E94FC00089581E0089581E0089581E056
:1002100008950E9407010895089508950E940C0111
:10022000089508950895A6E0B0E0E9E1F1E00C94A6
:10023000891949835A839E8330911B0189819A8150
:1002400031111AC03E81311599F0211589F00E94B3
:100250008C06182F682F89819A810E947006698107
:100260007A81812F0E942C0D2696E3E00C94A5192B
:100270000E947D06182FF3CF0E948C0669817A8137
:10028000F1CFFC01262F40815181628173818481ED
:1002900095810E9413010895CF93DF93D82FC92F22
:1002A00061E00E9441016D2F7C2F0E94FE008115AC
:1002B00049F061E08D2F9C2F0E9441016D2F7C2F12
:1002C0000E940001DF91CF9108950F931F93CF9368
:1002D000DF93D82FC92F60E00E9441018C016D2F60
:1002E0007C2F0E940D016D2F7C2FC8010E940E01F2
:1002F000DF91CF911F910F91089521E030E0A90186
:1003000002C0440F551F8A95E2F7CA010E94920568
:100310000895CF93C82F81E090E00C2E02C0880F83
:10032000991F0A94E2F70E94B90A8C2F0E947D015E
:10033000CF91089581E0089581E008950E949A0187
:100340000895CF93C82F0E943C058C2F0E949C01DA
:100350008C2F0E949E012FEF84E39CE0215080406F
:100360009040E1F700C00000CF91089581E00E9425
:10037000A1010E94E012089580E00E94A1010E9464
:10038000041308950F931F93CF93DF938C0161E0C3
:100390000E944101EC01B8010E940501811509F498
:1003A00042C0B801CE010E9409018115E1F1B801F6
:1003B000CE010E94E8108115B1F1B801CE010E9472
:1003C000A90F811581F1B801CE010E947E0F811520
:1003D00051F1B801CE010E942F0E811521F1F801D3
:1003E0008581811581F0CA35FCE7DF0739F178F4A2
:1003F000C130ECE7DE07F9F0C330FCE7DF07C9F0F6
:10040000C115DC4771F0C8010E9403010DC0CB3556
:10041000ECE7DE07B1F0CC35DC47A9F70E948B0A88
:10042000F2CF0E94B60180E0DF91CF911F910F9132
:1004300008950E949C0A0E94BC01F5CF0E94940A74
:10044000E2CF0E94980ADFCF0E9411010E941C1285
:100450000E94480208950E944C020E9412010E94CC
:100460002112089581E008950895CF93DF93D82F46
:100470000E943202C82F811519F08D2F0E9434027C
:100480008C2FDF91CF91089508950E943502089531
:1004900080E00E94450208950E942F110E944502AB
:1004A0000895CF930E942F11C82F809116018C17A9
:1004B00079F0C09316010E94B012609317017093F7
:1004C00018018093190190931A018C2F0E94450204
:1004D000CF910895ADE0B0E0E0E7F2E00C948A1926
:1004E000488759876A877B878C879D8791110E94EF
:1004F000C7091F8286E0FE013896DE011196019041
:100500000D928A95E1F78D8181110DC029813A8183
:100510004B815C816D817E818F810E9411092D96B6
:10052000E2E00C94A619CE0101960E944C018111C3
:10053000EDCFF5CFFC018481813021F48081918160
:100540000E94BE060895CF93C82F811599F08CEFB5
:100550008C0F813A88F48C2F0E945B11811529F051
:100560008C2F0E949F110E94380A8C2F0E94971195
:100570000E94380ACF91089580E28C0F8830D0F71E
:10058000C77081E001C0880FCA95EAF70E94A809E8
:10059000EFCF811541F09CEF980F913A28F40E941B
:1005A0009F110E94380A089590E2980F9830D8F76A
:1005B000877091E001C0990F8A95EAF7892F0E9410
:1005C000AE09EFCF0F931F93CF93C82F8B010E94DB
:1005D000A3020115110539F48C2F0E94C902CF9195
:1005E0001F910F9108958FE99FE00197F1F700C0E7
:1005F000000001501109EDCF60E570E0893311F082
:1006000060E070E00E94E2020895811521F00E94EE
:10061000A8090E94380A0895811521F00E94AE09A8
:100620000E94380A0895A0E0B0E0E9E1F3E00C94FC
:1006300084196C01D62FC72FFC0115810681029504
:100640000F700E949D09E82E8115F9F0E12E111519
:10065000E1F08C2F807F803461F080E28D0F883054
:10066000B8F18C2F807E803221F4D23088F10115D0
:1006700079F18091990182FF2BC082E00E945E0A8D
:100680000E949D0991E0E82EE9269C2F92959F708B
:10069000983009F4C6C0F0F4923068F1925F9F7010
:1006A000923008F459C0E11409F4EEC00E9499098F
:1006B00080FDEAC0F60115820E9493090E94CE05D2
:1006C000C6010E940F050E9493090E94DE05DCC04E
:1006D000E12CDBCF993009F420C19A5F9F709230F2
:1006E00010F7D23F09F02AC18C2F8F71111123C14D
:1006F0000E94CE05C5C00C2F0F70C03110F00295BE
:10070000007F111599F0011559F080E28D0F8830A6
:1007100010F0D11107C0802F0E94A8090E94380A4A
:100720008D2F3BC0802F0E94B909F8CF8D2F0E94DA
:10073000C902011509F4B7CF80E28D0F883010F09F
:10074000D11104C0802F0E94AE0903C0802F0E94E7
:10075000BF090E94380AA7CFFC2FFF70FF2EC07F71
:10076000C03219F0F29480EFF822D11541F0D13067
:10077000D1F1111509F444C00115F1F0D1CF8091E8
:10078000990182FD15C0111559F0F11429F08F2D32
:100790000E94A8090E94380A80E00E94A30283CF29
:1007A00080E00E94C902F11409F47DCF8F2DCBCFD8
:1007B000111569F0011104C08F2D0E94050373CF3C
:1007C000013009F070CF8F2D0E94DF096CCF01112D
:1007D0006ACF8F2D0E940C038F2D0E94EB098F2D65
:1007E0000E94CE0960CF111521F0063008F05BCFD2
:1007F000E3CF053008F057CF8F2D0E940C0353CF65
:100800000115D1F3D93349F42FEF87EE93E021504E
:1008100080409040E1F700C000008D2F0E94C90287
:1008200042CF8C2F837081113DC0111129C04D2FF3
:10083000429546954770440F440F2D2F2F7030E09E
:10084000042E02C0220F331F0A94E2F780E090E0EA
:10085000D4FF09C08FE090E002C0880F991F4A952D
:10086000E2F780959095C695C695C370822B932B21
:10087000C23091F0C33099F0C13059F00E949E050A
:100880000E942F110E944502CDB7DEB7E8E00C941C
:10089000A0190E949505F4CF0E94A705F1CF0E94F0
:1008A0009205EECF111561F1C0FFEACF4D2F4295B1
:1008B00046954770440F440F2D2F2F7030E0042EC3
:1008C00002C0220F331F0A94E2F780E090E0D4FFC9
:1008D00009C08FE090E002C0880F991F4A95E2F7A7
:1008E00080959095C695C695C370822B932BC23088
:1008F00071F0C33079F0C13039F00E940906C0CFE1
:10090000823008F4BDCFD2CF0E940006B9CF0E943A
:100910001206B6CF0E94B605B3CFCF70111539F0CD
:100920008C2F0E94CE058D2F0E940503A9CF8D2FFD
:100930000E940C038C2F0E94DE05A2CF60F4D03FF2
:10094000B9F0D13F81F01115F1F10115C9F18D2FE9
:100950000E94A30295CFD33FB9F0D43FA1F7809175
:10096000990182FD1BC08C2F8F71111521F3C0CE10
:10097000111541F0053008F083CF8C2F8F710E9444
:10098000F0057ECF0630F7CF111529F08C2F8F712F
:100990000E94C20575CF0E94BD0572CF111531F0BE
:1009A00063E08C2F8F710E943F0A6ACF81E00E9422
:1009B0005E0A023008F464CF82E00E945E0A60CFD3
:1009C0008C2F8F7195CE011579F0D93349F4EFEF63
:1009D000F7EE23E0E150F0402040E1F700C00000D6
:1009E0008D2F0E94C9024CCF8C2F8F71A4CF0F93F3
:1009F0001F93CF93DF93EC01688179818D810E94F1
:100A0000CB068C010E941B060E949105B801CE0105
:100A10000E941303DF91CF911F910F910895CF93FF
:100A2000DF93EC018C81811599F0CE010E94C20107
:100A3000811111C00E949D09811551F08D81811590
:100A400039F08091990182FF03C082E00E945E0A22
:100A5000DF91CF910895CE010E94F704CE010E944C
:100A60006501F6CF0E94C7090E94380A08950E94C6
:100A7000A7110E94320508950E94B6090E94370509
:100A80000895282F92959F70963099F060F4925FA8
:100A90009F70923030F4203FB1F038F481E0283E6E
:100AA00038F080E008959A5FF3CF81E0243FC9F7E2
:100AB000089591E0813F09F090E081E0283E08F040
:100AC00080E0892B089581E00895FC0184818115DF
:100AD00039F0808191810E94BE060E9441050895EF
:100AE00080E00895A6E0B0E0E8E7F5E00C948A190C
:100AF0002696E2E00C94A619A7E0B0E0E2E8F5E063
:100B00000C948A192796E2E00C94A61908950E9485
:100B1000860508950E948705909323018093220102
:100B2000089508950E948A05089520912201309128
:100B30002301822B932B0E948A0508952091220184
:100B400030912301822393230E948A0508952091E6
:100B5000220130912301822793270E948A0508955C
:100B60000E94860508950E94B00508950E94B3056D
:100B70009093210180932001089580E090E00E94ED
:100B8000B605089521E030E0A90102C0440F551FC9
:100B90008A95E2F7CA010E94B605089521E030E087
:100BA00002C0220F331F8A95E2F7809120019091B5
:100BB0002101822B932B0E94B605089521E030E09D
:100BC00002C0220F331F8A95E2F72095309580915D
:100BD000200190912101822393230E94B60508955C
:100BE00021E030E002C0220F331F8A95E2F78091A6
:100BF000200190912101822793270E94B605089534
:100C00002091200130912101822B932B0E94B60567
:100C100008952091200130912101822393230E9485
:100C2000B605089520912001309121018227932754
:100C30000E94B605089508959B01677091E001C078
:100C4000990F6A95EAF763E0369527956A95E1F77B
:100C5000220F331F220F331FFA01E20FF31F40E070
:100C600050E0682F70E08191DF019B01042E02C0EB
:100C7000369527950A94E2F7217021952827292394
:100C800028272E934F5F5F4F4430510561F7089539
:100C90009C01982F977083E0369527958A95E1F708
:100CA000220F331F220F331FFB01E20FF31F40E01F
:100CB00050E080E0219130E0092E02C03695279562
:100CC0000A94E2F721703327042E01C0220F0A9400
:100CD000EAF7822B4F5F5F4F4430510559F7089573
:100CE000282F862F911108C0233030F4622F70E036
:100CF0004CE151E00E941C060895282F892F911184
:100D000009C0233040F46CE171E0822F90E00E9432
:100D10004806089580E00895A0E0B0E0E2E9F6E03A
:100D20000C9483198C01E0902001F09021018091B6
:100D3000220190912301E82AF92ACFE0D0E0CC24C7
:100D4000C394D12CC6010C2E02C0880F991F0A949F
:100D5000E2F78E219F21892B49F4219798F7B12C36
:100D60008B2DCDB7DEB7E9E00C949F19BC2EB801EE
:100D70008C2F0E94380D019781F3F2CFCF93DF9330
:100D8000D82FC92F0E948C066D2F7C2F0E94380D02
:100D9000DF91CF9108951F93CF93DF93162FD72F15
:100DA00090911B01911541F0862F972F0E94BE064E
:100DB000DF91CF911F910895811581F0862F972F94
:100DC0000E948C06C82F682F812F9D2F0E947006CD
:100DD000612F7D2F8C2F0E94380DEACF862F972F01
:100DE0000E947D06C82FF4CF0F931F93CF93E091FD
:100DF0002401C7E0809125018E1304C0CF911F917B
:100E00000F9108950E2F10E0CE9FF0011124EA5D9E
:100E1000FE4F2081318142815381648175818681B9
:100E20000E947C05F8013196E770E4CF20915E01C5
:100E300030915F01409160015091610160916201C8
:100E400070916301809164010E947C0508958091F6
:100E50006401803178F480916301811559F0E0914B
:100E600024012091250130915F0140915E0157E0FE
:100E70002E1301C008956E2F70E05E9FF0011124C3
:100E8000DF01AA5DBE4F14968C911497811561F114
:100E900011968C911197831327C08C91841324C0D1
:100EA00015968C91159781111FC012968D919C916A
:100EB000A0916001B09161018A1B9B0B883C910558
:100EC00098F4809164018F70806180936401E45D87
:100ED000FE4F80818F70806180838EE591E00E945B
:100EE0000F050E94F4060895FB013196E770C0CF0C
:100EF000E09124019091250127E0E91302C080E0F0
:100F00000895AE2FB0E02E9FF0011124EA5DFE4F50
:100F10003181361306C03081381303C03581341354
:100F200004C0FD013196E770E8CF81E008958F920B
:100F30009F92AF92BF92DF92EF92FF920F931F9317
:100F4000CF93DF93CDB7DEB72D970FB6F894DEBF02
:100F50000FBECDBF8C0186E0F801DE01189601902E
:100F60000D928A95E1F7F801F58084819EE5892E3E
:100F700091E0992E9091620191111BC0811509F4A5
:100F8000FFC0F11409F440C1C8010E946505811534
:100F900009F43AC187E0F801D40101900D928A95D5
:100FA000E1F7C4010E949A020E9427070E941607D7
:100FB000E7C0E080A280B380D090630120916001FF
:100FC00030916101A501421B530BD11409F4DBC020
:100FD000483C510508F0A6C0811509F4D1C0909194
:100FE0005F01918080916401803108F06BC099129B
:100FF00028C090915E019E1124C0F1105DC08F70D9
:101000008061809364010E9416078EE591E00E9442
:101010000F0580916401F8018683F12C8F2D2D96A8
:101020000FB6F894DEBF0FBECDBFDF91CF911F91F9
:101030000F91FF90EF90DF90BF90AF909F908F90B7
:101040000895F11039C040E0692D8E2D0E94780777
:1010500040E0692D8E2D0E947807F82E8111DDCF9A
:10106000888599850E94BE06292F22952F7090347D
:1010700050F49F70223080F0911599F0F80196811C
:10108000903178F4CBCF2A5F2F70223078F0C801EE
:101090000E940F05FD2CC2CF911519F0811509F49E
:1010A000BDCF805E883008F4B9CFF1CF803F08F41F
:1010B000B5CF815F8330F7CF8091640181608093E9
:1010C0006401ABCF991207C090915E019E1103C0DD
:1010D000F11409F479C0C8010E946505811509F46D
:1010E00093C0F11409F490C080916401803288F0BB
:1010F00020915E0130915F013A832983BC82AB82EB
:10110000909162019D831E828F83CE0101960E9481
:101110000F0587E0F801AEE5B1E001900D928A95E8
:10112000E1F742CF909164019031A0F44885598550
:101130006A857B858C859D850E9472058EE591E090
:101140000E940F0587E0F40111928A95E9F70E9449
:10115000160763CF8115A1F020915F0181812813CB
:10116000BACF80915E018E11B6CFF110B4CF9683C5
:10117000C8010E940F0587E0F40111928A95E9F7F2
:10118000FF24F3944BCF483C510508F041C0811532
:10119000B9F3F114C9F190915F01818198132AC0CC
:1011A00080915E018E1126C08091640180FD19C07E
:1011B0008031B8F08683807F803F39F08681982F18
:1011C000907F905F8F70892B8683C8010E940F05E6
:1011D00087E0F801AEE5B1E001900D928A95E1F764
:1011E000E5CE87E0F801AEE5B1E001900D928A9579
:1011F000E1F7C6CFC8010E94650581118ACF8091B1
:101200006401816080936401C8010E940F05B8CF1A
:10121000488559856A857B858C859D850E947205E8
:1012200091CFAEE0B0E0E7E1F9E00C9489192887AE
:1012300039874A875B876C877D878E87CE010896C2
:101240000E9497076C858115A9F0611541F02885EA
:1012500039854A855B857D858E850E947C0517E0F2
:10126000809124019091250189133AC02E96E3E0E4
:101270000C94A51987E0FE013896DE0111960190C5
:101280000D928A95E1F7611551F3A09125018A2FFE
:1012900090E001968770992720912401281719065C
:1012A00089F097E09A9FD0011124AA5DBE4FFE01FC
:1012B000319601900D929A95E1F7809325010E9455
:1012C000F406CDCF0E943C05109225011092240116
:1012D00087E0EEE5F1E0DF011D928A95E9F7BFCFE7
:1012E000189FC00111248A5D9E4F0E9497078115A7
:1012F00009F4BCCFE09124011E9FF0011124EA5DA6
:10130000FE4F2081318142815381648175818681C4
:101310000E947C058091240190E0019687709927B6
:10132000809324019DCF80916D0186958695869549
:10133000089580916D018770089590916D01977067
:1013400081E0911101C080E00895809179010895B4
:1013500090917901982B909379010895982F909509
:101360008091790189238093790108951092790100
:10137000089590917801982B909378010895982F73
:101380009095809178018923809378010895109237
:101390007801089508950E94CA09089590916E01F8
:1013A000292F2823211531F08095892380936E0100
:1013B0000E94CB09089508950E94DB090895909139
:1013C0006F01292F2823281729F0982B90936F015C
:1013D0000E94DC09089590916F01292F282321157F
:1013E00031F08095892380936F010E94DC09089574
:1013F00080916F01811529F010926F0180E00E94A9
:10140000DC0908950F931F93CF93DF9300910001A0
:1014100010910101C091790180917801C82B8091D0
:101420006F01811531F0C82B0E94471181110E9474
:10143000F809F801C083C0910001D091010148E092
:1014400050E065E671E0CE010E94B119892B59F098
:1014500088E0FE01A5E6B1E001900D928A95E1F7E2
:10146000CE010E943C11DF91CF911F910F91089501
:101470000E94020A089508950E943B0A0895962F3B
:101480002091990122FF11C0682F660F660F660F29
:10149000692B60936D010E94CE0580916D01869548
:1014A000869586950E943C0A08950E94CE0508956F
:1014B00010926D0180E00E943C0A089590916D01A8
:1014C0008095892380936D01282F277021110DC0ED
:1014D000891759F09091990192FF07C086958695DA
:1014E00086950E94DE050E94580A08959091990100
:1014F00092FB222720F9281769F080FB92F990933C
:10150000990180919801909199010E94C40A82E00A
:101510000E945E0A089580919901002482FF03943D
:10152000802D0E94760A089581E00E94760A08952F
:1015300080E00E94760A08956FEF7FEF80E090E0F0
:101540000E94031A089580E090E00E94CF199C0148
:1015500081E0253E3E4F09F080E0089582E090E072
:101560000E94C719089583E090E00E94C71990E097
:101570000895682F83E090E00E94E519089584E0C3
:1015800090E00E94CF190895BC0184E090E00E9491
:10159000031A0895AB01BC018FE090E00E94F71997
:1015A0000895AB01BC0183E190E00E94F719089512
:1015B00060E070E0CB010E94D10A089560E070E025
:1015C000CB010E94CA0A0E94D80A0895A8E0B0E0A0
:1015D000ECEEFAE00C948A1965EE7EEF80E090E084
:1015E0000E94031A60E082E090E00E94E51981E029
:1015F00090E090932301809322010E94B90A60E059
:1016000074E184E090E00E94031A60E086E090E0DC
:101610000E94E51960E087E090E00E94E51940E053
:1016200050E0BA0188E090E00E94F71960E083E2A0
:1016300090E00E94E51960E08CE090E00E94E519DE
:1016400060E08DE090E00E94E51919821A821B8209
:101650001C821D821E821F82188648E050E067E1CE
:1016600070E0CE0101960E94D51940E050E0BA0129
:101670008FE190E00E94F7190E94DE0A2896E2E0CE
:101680000C94A6190E94E60A0895682F8EE090E057
:101690000E94E5190895A6E0B0E0E1E5FBE00C94B6
:1016A00088190E94A4128C0180917A0190917B018B
:1016B0008017910779F019821A820E94A412BC0146
:1016C00049815A8180E090E00E946A0210937B0178
:1016D00000937A012696E4E00C94A4190E94B012BB
:1016E00060938101709382018093830190938401C0
:1016F00060937D0170937E0180937F0190938001C0
:101700000895089508950E94810B089508950E94F8
:10171000860B0E94830B089508950E948C0B0895F8
:1017200008950E94900B0E948D0B08958DE29EE01B
:101730000E94580F0E94820B0E94870B089581E03F
:10174000089581E008950E949F0B089508950895DB
:1017500008950E94A60B0E94A70B0E94A80B089553
:101760000E94A30A811102C00E94420B0E94AE0A8D
:10177000809385010E94BF0A9093990180939801FC
:101780000E947B0F0E94B30A0E9492058091200163
:10179000909121010E94B30508950E949B120E941E
:1017A000C20E0E94B00B0E9444020E94910B089549
:1017B000A6E0B0E0EEEDFBE00C9485190E94A10BD1
:1017C000811108C00E944B0B0E9451022696E7E04F
:1017D0000C94A1190E94CE0E10917C0180E00E9411
:1017E000490E181779F38091850181FD0E944F0EF3
:1017F0000E94A30BD82E80E00E94490E182F9091D2
:101800007C01891731F1E82EE92600E0FF24F394EA
:101810008E2D8F218115B9F0D114A9F009831A8278
:101820000E94A4129C838B8381E08D8391E0812FA1
:101830008F21811101C090E049815A816B817C81A7
:101840008D810E946A020F5FFF0C033009F710932D
:101850007C010E946E0BB8CF1F93CF93DF930E9441
:101860003D0DEC01811522E5920708F04EC081156F
:1018700040E5940708F0C7C0883E9105E0F4803E3B
:10188000910560F4853A910570F4049738F481E08D
:10189000219709F080E0C82F50E0D52FCE01DF91CD
:1018A000CF911F9108958D5C9109D0654397B0F356
:1018B000C0E0D0E0F3CFC11580E4D807E0F4C11553
:1018C00090E2D90708F0B5C0CE019A9581159F41E5
:1018D00078F78D2F0E94DE0D182FCE0199270E94D8
:1018E0003D0D212F30E0322F2227E901CC27DF7177
:1018F000C82BD92BD3CFCE0199270E943D0DCC27E1
:10190000DF70C82BD92BD06AC9CF803842E5940745
:10191000C8F5803652E5950708F056C0C03482E518
:10192000D807D0F4C03292E5D90708F046C08C2F12
:101930008695869520E2829FC0011124C37021E024
:1019400030E0A90102C0440F551FCA95E2F7EA0131
:10195000C82BD92BDD68A2CF8C2F869586958770F2
:1019600050E2859FC0011124C37021E030E0A9013D
:1019700002C0440F551FCA95E2F7EA01C82BD92BC4
:10198000DC688CCF803C52E5950758F48F71C03AE3
:10199000D24578F590E0982F8827EC01C46FD06A83
:1019A0007DCF805C9245809708F082CFDC2FCC27DA
:1019B000CC27DF71C06FD06A71CFCF71D0E0DC2F40
:1019C000CC27C16FD06A6ACF86958695877020E252
:1019D000829FC0011124C37021E030E0A90102C040
:1019E000440F551FCA95E2F7EA01C82BD92BDA68D4
:1019F00055CF0E94DE0DC82FD0E0DC2FCC27CC279E
:101A0000DF71D0624BCF8F710E94DE0D53E0CC0F9F
:101A1000DD1F5A95E1F7CC27DF70282F30E084FFD7
:101A200004C050E1859F90011124C22BD32BD069B3
:101A300035CF8D2F8F710E94DE0D182FCE01992783
:101A40000E943D0D212F30E0322F222722273F71A7
:101A5000282B392BE901D5CF462F711106C06330F1
:101A600020F460E00E94F900089580E090E008957D
:101A70000E942C0D0E942C0C08959C01803E910523
:101A800009F448C0D8F48133910509F47DC048F4C5
:101A90008932910509F46DC08A9709F47CC0C901A7
:101AA00008958933910551F18238910539F1C5972F
:101AB000B1F78091980185FFF2CF29C0843E91054E
:101AC00009F447C048F4823E910599F1833E91059F
:101AD000A9F121EE30E0E3CF863E910509F444C040
:101AE000873E9105E1F68091980183FD61C0909158
:101AF000990191FF2BC024EE30E0D1CF8091980165
:101B00008370811152C08091990183FFC8CF29E26F
:101B100030E0C5CF8091980180FD33C0909199014C
:101B200090FFBDCF23EE30E084FFB9CF20E030E05E
:101B3000B6CF8091980182FDF5CFB1CF8091980109
:101B400082FD30C09091990190FD2FC084FFA7CFF6
:101B5000EDCF8091990181FFA2CF8091980127EE6E
:101B600030E084FDE3CF9BCF8091980183FDF7CFD8
:101B700096CF8091980185FD1EC08091990183FFC9
:101B80008ECF29E330E08BCF8091980186FF87CFFD
:101B90002AE230E084CF8091980186FF80CF21E354
:101BA00030E07DCF22EE30E07ACF20EE30E077CF0C
:101BB00026EE30E074CF25E330E071CF90919801AC
:101BC00092FF10C041E0282F2471243009F040E03A
:101BD00031E0282F2871283009F030E0431711F048
:101BE0002CE0822793FF10C041E0282F247124317C
:101BF00009F040E031E0282F2871283109F030E069
:101C0000431711F02CE082273091990130FF10C06A
:101C100051E0282F2171213009F050E041E0282FB8
:101C20002871283009F040E0541711F029E082278C
:101C300031FF10C041E0282F2171213109F040E02F
:101C400031E0282F2871283109F030E0431711F0D6
:101C500029E0822794FD877E089580E00895CF9340
:101C60009C01FB01805E9245C1E0809738F4C581FC
:101C7000C11104C0822F8F710E9489018C2FCF91D6
:101C8000089508950E94410E089508950E94450EFA
:101C90000895E82FF0E0E556FE4F808108950895FD
:101CA00080EA8A95F1F7089500C008950E94500EC9
:101CB0000895F894E82FE295EF70F0E041A18F705D
:101CC00021E030E0B90102C0660F771F8A95E2F784
:101CD000CB01962F9095942391A392A1892B82A357
:101CE0007894089582E90E94590E81E90E94590E64
:101CF00080E90E94590E84E90E94590E0895A0E0DF
:101D0000B0E0E5E8FEE00C9485197C01D62FC42FE5
:101D1000062F10E0005F1E4FF80190819F3F49F1B0
:101D2000F894E92FE295EF70F0E081A19F7021E037
:101D300030E001C0220F9A95EAF7822B81A382A19D
:101D40002095282322A378940E94540EF7019081B5
:101D50004C9914C0C92BDD24D394F701C083F8013A
:101D600080818F3F11F00E94590E6D2D8D2F0E94A2
:101D7000560ECDB7DEB7E7E00C94A119C095C92384
:101D8000D12CEBCF0E94720E10929B0110929A01FF
:101D900081E00E94000F0E94420E0895A1E0B0E091
:101DA000E4EDFEE00C948919198241E060E0CE0177
:101DB00001960E947F0E42E061E0CE0101960E94F2
:101DC0007F0E44E062E0CE0101960E947F0E90916A
:101DD0009A01898121E0981310C020E041E06BE96D
:101DE00071E08AE991E00E94010F182F0E94460ECF
:101DF000812F2196E3E00C94A51980939A01EECFF0
:101E00000895A0E0B0E0E7E0FFE00C948419D82E3C
:101E1000E92EF62ED72F042FC22F211579F081E05D
:101E2000809388010E94A412909387018093860179
:101E300080E0CDB7DEB7E8E00C94A019C09088012F
:101E4000C114B1F380918601909187010E943312F1
:101E5000059770F310E0A8016D2D7E2D8F2D9D2F1D
:101E60000E94B119892B41F0A8016D2D7E2D8F2D77
:101E70009D2F0E94BE19CC2D109288018C2FD9CF96
:101E80000E94D80B08950E943D120E9442140E94A5
:101E9000960B0E945C140E94CD0B0E9469140E9454
:101EA0006E140E94400F0E9488140E94A90BF7CF65
:101EB000909315018093140108950E949C0A08953F
:101EC00080E00E94490E817008950E94CE0E2FEF8F
:101ED00086E791E0215080409040E1F700C000008B
:101EE0000E94CE0E0E94600F811521F00E945D0FAE
:101EF0000E94E01208950E94650F0895CF93DF932A
:101F0000EB0186319C4719F50E94A5099D81911529
:101F1000A1F08A7A91E0811101C090E0909389014B
:101F2000811549F085E30E9497110E94380A80E0EC
:101F3000DF91CF91089589E2F6CF809189018115D3
:101F400021F085E30E949F11F0CF89E2FBCF81E071
:101F5000EFCFCF93DF93EC01FB018581811509F46D
:101F6000CFC09E0130572332310508F0AFC00E9428
:101F7000BF0A9093990180939801FE01E150F047C8
:101F8000E232F10520F4E55EF54E0C94741980916F
:101F9000980181608093980190C080919901886038
:101FA000809399018AC0809198018260F3CF8091DB
:101FB00098018460EFCF809198018860EBCF809189
:101FC00099018160EDCF809199018260E9CF809184
:101FD00098018061DFCF809198018062DBCF809192
:101FE00098018064D7CF0E943C0580919801806859
:101FF000D1CF809198018C60CDCF80919901836081
:10200000CFCF809198018E7FC5CF80919901877F36
:10201000C7CF809198018D7FBDCF809198018B7F34
:10202000B9CF80919801877FB5CF809199018E7F3C
:10203000B7CF809199018D7FB3CF809198018F7E2A
:10204000A9CF809198018F7DA5CF809198018F7B3A
:10205000A1CF0E943C05809198018F779BCF809102
:102060009801837F97CF809199018C7F99CF809140
:102070009801992782FF939590FB82F990FB83F951
:1020800089CF80919901982F909590FB80F990FBD2
:1020900081F986CF90919801892F8F7B96FF80647C
:1020A00079CF0E943C0590919801892F97FB87F981
:1020B000805870CF81E00E94450B809198019091EB
:1020C00099010E94C40A0E943C0580E0DF91CF91F3
:1020D000089580E0F0CF90919801892F8F7E94FF32
:1020E000806158CF90919801892F8E7F90FF8160F9
:1020F00051CF90919901892F877F93FF886050CFAE
:1021000081E0E4CF0F931F93CF93DF93C42FD22F9F
:10211000FC0185818115C9F040938C010E94A412B5
:1021200090938B0180938A0180E28C0F883040F479
:10213000C77081E001C0880FCA95EAF70E940503C5
:10214000DF91CF911F910F91089510918C0114137D
:1021500033C080918A0190918B010E943312883C98
:10216000910550F5C0E2CD0F1D17C1F080E2810F3F
:10217000883040F4177081E001C0880F1A95EAF7A3
:102180000E940C03C83050F491E08D2F877001C07D
:10219000990F8A95EAF7892F0E940503802F0E94E4
:1021A000FC02C83068F6D77081E001C0880FDA956C
:1021B000EAF70E940C03C4CF80E28C0F883008F04D
:1021C000BFCFC77081E001C0880FCA95EAF7F1CF91
:1021D0000F93DB01FC01E851FC47E730F10598F56E
:1021E000E35CF54E0C94741906E221EE41EE6AE1CF
:1021F0007CE7CD010E94821080E00F91089507E2F4
:1022000025EE45EE6BE17CE7F4CF06E221EE40EEF1
:1022100068E17CE7EECF07E225EE44EE69E17CE77A
:10222000E8CF06E221EE42EE6CE17CE7E2CF07E286
:1022300025EE46EE6DE17CE7DCCF08E221E045EEDD
:102240006EE17CE7D6CF15968C91811110928C01AE
:1022500081E0D3CF90938E0180938D010895E0911A
:102260008D01F0918E01309729F00190F081E02DE1
:102270000995089580E00895E0918D01F0918E0117
:10228000309721F00280F381E02D09950895409167
:102290000001509101019A012E5F3F4F485F5F4F4F
:1022A00080E0F90190812F5F3F4F91118F5F4217BE
:1022B0005307B9F70895811571F02091000130910D
:1022C0000101F9013296285F3F4F9191981729F04B
:1022D000E217F307D1F780E0089581E008959C01AB
:1022E000FC0132968FEF90E04191461751F08F3FFD
:1022F00019F4411101C0892F9F5F9630A9F78F3FD4
:1023000009F40895280F311D87FD3A95F90162837C
:1023100008959C01FC013296285F3F4F81918613FE
:1023200002C0DF011E92E217F307C1F70895682F7C
:1023300080910001909101010E946F110895682F12
:1023400080910001909101010E9489110895E0910E
:102350000001F0910101329686E0DF011D928A951D
:10236000E9F7089508950E94B21108958F5F809350
:102370000501609102017091030180910401909127
:1023800005010E94B311089583E0809305016091D7
:1023900002017091030180910401909105010E9456
:1023A000B31108950E94B611089581E0809305014C
:1023B00060910201709103018091040190910501E7
:1023C0000E94B31108950E94D511089591E08111E2
:1023D00001C090E0909304016091020170910301AB
:1023E00080910401909105010E94B311089580919C
:1023F000040108958093030160910201709103012B
:1024000080910401909105010E94B311089580917B
:10241000030108958093020160910201709103010C
:1024200080910401909105010E94B311089580915B
:1024300002010895089508950E941B1208950895B9
:1024400008950E941A1208950E941F120E94CE0E33
:102450000E94201280E00E94490E982F81E0911185
:1024600001C080E00895CF93DF93EC010E94A41295
:102470008C1B9D0BDF91CF91089585B7806885BF38
:1024800085B7806885BF08951F921FB61F921124DB
:102490008F939F93AF93BF9380918F01811113C04E
:1024A00080919C0190919D01A0919E01B0919F010E
:1024B0004196A11DB11D80939C0190939D01A09315
:1024C0009E01B0939F01BF91AF919F918F911F90FB
:1024D0001FBE1F9018958091A401843031F10E9495
:1024E000240210928F0188E190E020E40FB6F89466
:1024F000A895809360000FBE2093600083B7817F12
:10250000846083BF83B7816083BF7894889583B7E5
:102510008E7F83BF0FB6F894A89580916000886184
:1025200080936000109260000FBE08950E943C05E9
:102530000E942B02089582E084BD93E095BD9AEF3E
:1025400097BD80936E0008952FB7F89480919C01F9
:1025500090919D01A0919E01B0919F012FBF089580
:102560002FB7F89460919C0170919D0180919E011C
:1025700090919F012FBF089578941F921FB61F92CC
:1025800011248F939F93AF93BF9380919C0190915F
:102590009D01A0919E01B0919F010196A11DB11DC9
:1025A00080939C0190939D01A0939E01B0939F0105
:1025B000BF91AF919F918F911F901FBE1F90189553
:1025C00081E08093E00080E28093D8001092C900FF
:1025D0008FE19EE40197F1F700C0000087E090EBE7
:1025E000DC018093AD019093AE01A093AF01B09355
:1025F000B00188E19CE00FB6F894A8958093600044
:102600000FBE90936000FFCF88E19CE00FB6F89476
:10261000A895809360000FBE90936000FFCF08954F
:1026200008950895282FCB01BA013091A4013430C8
:10263000D9F42F702093E9002FEF3091E80035FD99
:1026400006C035ED3A95F1F700002A95B1F72091D3
:10265000E80025FF09C040E050E00E94EE148091A0
:10266000E8008E778093E8000895CF93DF93D82F0A
:10267000C92F0E94F71148E050E06D2F7C2F81E0B8
:102680000E94121388E0ED2FFC2FA0E9B1E0019029
:102690000D928A95E1F7DF91CF9108958091A30182
:1026A000811109C00E9477160E94D4168091E20021
:1026B00084608093E20008951092A30108950E941F
:1026C000D51181E00E94E61108956091A00181E09A
:1026D000611101C080E00E94C41108959091A4018D
:1026E00081E0943009F080E06091A0010E94D21155
:1026F000089542E061EC81E00E94F3159091A401FD
:1027000081E0943009F080E06091A0010E94B61150
:1027100008958091A601893089F148F4823009F446
:10272000A0C0833009F45AC0813041F008958A3046
:1027300009F487C08B3009F46CC008958091A5011D
:10274000813A09F04AC08091E800877F8093E800D1
:102750008091A9019091AA01892B61F060E080E04D
:1027600090E070E00E943E158091E8008B778093A6
:10277000E800089568E080E991E0F3CF8091A50139
:10278000813259F58091A9019091AA01892B29F5EF
:102790008091E800877F8093E8008091E80082FFC5
:1027A00018C09091F3008091F200029731F480916B
:1027B000F100813011F0863021F48091F1000E9407
:1027C000FA118091E8008B778093E8000E94271629
:1027D00008958091A4018111E0CF08958091A50111
:1027E000813AD9F78091A9019091AA01892BA9F783
:1027F0008091E800877F8093E8008091E80080FF67
:10280000FCCF0E94F7118093F1008091E8008E7751
:10281000DBCF8091A501813201F78091A9019091D0
:10282000AA01892BD1F68091E800877F8093E80088
:102830000E9427168091A7010E94E6110E943C0584
:1028400008958091A501813241F68091E800877F4B
:102850008093E8000E9427168091A8010E940A1226
:1028600008958091A501813A09F0B7CF8091E800E1
:10287000877F8093E8008091E80080FFFCCF0E9472
:102880001712C1CF84B7877F84BF0FB6F894A8957D
:1028900080916000886180936000109260000FBE9C
:1028A00080E890E00FB6F894809361009093610007
:1028B0000FBE0E94E31108950E9477160E94D4165D
:1028C000E2EEF0E080818460808378940E945A195F
:1028D000089586E091E00E942A1108958091A40154
:1028E000853031F48091A401853019F00E94961250
:1028F00008950E946B120E942412811599F3809111
:10290000A201811579F30E94D8140E943C05EACFF8
:1029100008959A014091AB015091AC010E9491142D
:102920000895AC01FB01D901852F992783309105CA
:10293000B9F060F481309105B1F1029761F482E25F
:1029400090E024EE30E02D933C9308958132910580
:10295000E1F0829709F180E090E020E030E0F3CFF1
:10296000CA019927413059F08230910559F0E0EEC3
:10297000F0E0892B81F7849190E09F01E4CFEAECAD
:10298000F0E0F9CFE2EBF0E0F6CF89E090E026EF5F
:1029900030E0EF2B01F7D7CF84E490E028E131E07D
:1029A000EF2BC9F6D0CF82E190E026E031E0CBCF2B
:1029B00080E189BD82E189BD09B400FEFDCF80912F
:1029C000D8008F7D8093D8008091E0008260809352
:1029D000E0008091E00081FDFCCF0895AF92BF92AE
:1029E000CF92DF92EF92FF920F931F93CF936C01E0
:1029F0008B017A010E944616C82F811123C0E11471
:102A0000F10439F0F70180819181081B190BC80E80
:102A1000D91EA12CB12C01151105A1F08091E8005F
:102A200085FD21C08091E8008E778093E800E11455
:102A3000F10499F0F701808191818A0D9B1D9183AA
:102A40008083C5E08C2FCF911F910F91FF90EF9065
:102A5000DF90CF90BF90AF9008950E9446168115E9
:102A6000E9F2C82FEFCFF60181916F018093F10059
:102A700001501109FFEFAF1ABF0ACDCFFC019B0136
:102A80008091AB019091AC018617970718F0672BE6
:102A900061F0C90140E0009771F441110CC08091D0
:102AA000E80082FF35C080E008958091E8008E77CD
:102AB0008093E800EECF2091A4012115A9F12530E3
:102AC000A9F12091E80023FD2DC02091E80022FD0E
:102AD000E6CF2091E80020FFDECF3091F300209177
:102AE000F200009719F02830310558F041E0283005
:102AF000310509F040E02091E8002E772093E800AE
:102B0000CACF41914093F10001972F5F3F4FE9CF2A
:102B10008091A401811541F0853041F08091E80059
:102B200083FFBDCF81E0089582E0089583E008959A
:102B3000FC019B018091AB019091AC018617970736
:102B400018F0672B61F0C90140E0009771F4411162
:102B50000CC08091E80082FF36C080E0089580912B
:102B6000E8008E778093E800EECF2091A401211534
:102B7000B1F12530B1F12091E80023FD2EC0209164
:102B8000E80022FDE6CF2091E80020FFDECF309163
:102B9000F3002091F200009719F02830310558F029
:102BA00041E02830310509F040E02091E8002E771F
:102BB0002093E800CACF44914093F10031960197E9
:102BC0002F5F3F4FE8CF8091A401811541F0853000
:102BD00041F08091E80083FFBCCF81E0089582E05E
:102BE000089583E00895982F973028F08F70809390
:102BF000E90081E008959093E900242F762F50E0BA
:102C0000981731F07091EC002091ED005091F00098
:102C100021FD02C09F5FE8CF3091EB003E7F3093F3
:102C2000EB003091ED003D7F3093ED003091EB00F3
:102C300031603093EB007093EC002093ED005093E3
:102C4000F0002091EE0027FDE5CF80E0089580910F
:102C5000A50187FF13C08091E80082FF06C0809124
:102C6000E8008B778093E80008958091A40181119A
:102C7000F2CF08958091A4018115D9F38091E800E5
:102C800080FFF8CF8091E8008E77ECCF2091E400B0
:102C90003091E50095E6A9012091EC00822F81702A
:102CA00020FF06C08091E80080FF06C080E0089504
:102CB0002091E80022FD1AC08091A401811589F0BD
:102CC000853089F08091EB0085FD0FC02091E400F4
:102CD0003091E50042175307F9F29A95E1F684E046
:102CE000089582E0089583E0089581E008950E94A8
:102CF000E6160E94EE16E0EEF0E0808181608083AF
:102D0000E8EDF0E080818F77808319BCA7EDB0E01B
:102D10008C918E7F8C9380818F7E80831092A30113
:102D200008950F931F93CF93DF930E94E6160E949E
:102D3000EE16C8EDD0E088818F778883888180681F
:102D4000888388818F7D888319BC1092A40110929A
:102D5000A0011092A2011092A10100EE10E0F80172
:102D600080818B7F808388818160888342E060E0FE
:102D700080E00E94F315E1EEF0E080818E7F808399
:102D8000E2EEF0E0808181608083808188608083D2
:102D9000F80180818E7F8083888180618883DF91C4
:102DA000CF911F910F910895E8EDF0E080818F7E23
:102DB0008083E7EDF0E080818160808384E082BFE2
:102DC00081E08093A3010E9491160895E8EDF0E060
:102DD00080818E7F80831092E20008951092DA0045
:102DE0001092E10008951F920F920FB60F921124D6
:102DF0002F933F934F935F936F937F938F939F9303
:102E0000AF93BF93EF93FF938091E10082FF0BC0DC
:102E10008091E20082FF07C08091E1008B7F809368
:102E2000E1000E9459198091DA0080FF19C0809159
:102E3000D80080FF15C08091DA008E7F8093DA0081
:102E40008091D90080FF94C080E189BD82E189BD75
:102E500009B400FEFDCF81E08093A4010E944E13CF
:102E60008091E10080FF19C08091E20080FF15C0D1
:102E70008091E2008E7F8093E2008091E200806189
:102E80008093E2008091D80080628093D80019BCC2
:102E900085E08093A4010E9465138091E10084FF86
:102EA00029C08091E20084FF25C080E189BD82E1D4
:102EB00089BD09B400FEFDCF8091D8008F7D80933D
:102EC000D8008091E1008F7E8093E1008091E20044
:102ED0008F7E8093E2008091E20081608093E20027
:102EE0008091A001811509F449C084E08093A40178
:102EF0000E946E138091E10083FF29C08091E2005F
:102F000083FF25C08091E100877F8093E10082E00C
:102F10008093A4011092A0018091E1008E7F8093A4
:102F2000E1008091E2008E7F8093E2008091E200D8
:102F300080618093E20042E060E080E00E94F3154F
:102F40008091F00088608093F0000E945F13FF91F1
:102F5000EF91BF91AF919F918F917F916F915F9111
:102F60004F913F912F910F900FBE0F901F9018958A
:102F700019BC1092A4010E945C1372CF8091E300EF
:102F800087FF02C083E0B2CF81E0B0CF1F920F92E3
:102F90000FB60F921124EF92FF920F931F932F936E
:102FA0003F934F935F936F937F938F939F93AF93D1
:102FB000BF93CF93EF93FF9309EE10E0F801808168
:102FC000C091EC008F70C795CC27C795C82B108295
:102FD00080EFE82EF12CF7018081877F8083789441
:102FE0000E941118F8011082F701808188608083A7
:102FF000CF70F801C083FF91EF91CF91BF91AF9156
:103000009F918F917F916F915F914F913F912F9100
:103010001F910F91FF90EF900F900FBE0F901F9098
:103020001895AAE2B0E0E7E1F8E10C94881985EA86
:1030300091E0FC0101962091F100208321E08D3A7E
:103040009207B9F70E9489138091E80083FF38C086
:103050008091A5019091A6019A3090F5E92FF0E0BA
:10306000EC5BF54E0C947419803889F0823841F588
:103070008091A9018F70873018F58093E9008091C5
:10308000EB0085FB882780F91092E90006C080914B
:10309000A201880F9091A101892B9091E800977F60
:1030A0009093E8008093F1001092F1008091E80085
:1030B0008E7723C0811116C08091A701813011F154
:1030C0008091E80083FF0AC08091E800877F8093A9
:1030D000E8008091EB0080628093EB00AA96E4E028
:1030E0000C94A419823061F78091A701811589F0B1
:1030F0001092E9008091E800877F8093E8000E94A9
:103100002716DECF81E0933009F080E08093A201A2
:10311000EFCF8091A9018F702FEF280F263080F616
:103120008093E9002091EB0020FFE2CF933031F44F
:103130008091EB0080628093EB00DACF9091EB00FE
:1031400090619093EB0021E030E0A90102C0440FB0
:10315000551F8A95E2F74093EA001092EA008091A9
:10316000EB008860E8CF8111ABCF1091A7011F77EA
:103170008091E3008078812B8093E3008091E800C8
:10318000877F8093E8000E9427168091E80080FFE7
:10319000FCCF8091E30080688093E30083E011110D
:1031A00001C082E08093A4018BCF8058823008F068
:1031B00087CF8091A7019091A8018C3D53E095079E
:1031C00099F583E08A838AE289834FB7F894DE0118
:1031D000139620E03EE051E2E32FF0E050935700D9
:1031E000849120FF03C082958F703F5F8F708A307B
:1031F000C8F0895C90E08D939D932F5F243161F737
:103200004FBF8091E800877F8093E8006AE270E01A
:10321000CE0101960E943E158091E8008B77809345
:10322000E8004ECF805DE6CF6091A9017091AA01C0
:10323000AE014F5F5F4F0E9489148C01892B09F406
:103240003FCF8091E800877F8093E800B8018981B3
:103250009A810E949815E0CF803809F031CF809193
:10326000E800877F8093E8008091A0018093F100BF
:103270001DCF811125CF9091A701923008F020CF6A
:103280008091E800877F8093E8009093A0010E94DE
:1032900027168091A001811531F084E08093A4016C
:1032A0000E9479130DCF8091E30087FDF6CF81E076
:1032B000F5CF0895CF938091A401811599F0809165
:1032C000E900C091EC008F70C795CC27C795C82B3B
:1032D0001092E9008091E80083FD0E941118CF70E0
:1032E000C093E900CF910895EE0FFF1F0590F49170
:1032F000E02D09942F923F924F925F926F927F92AE
:103300008F929F92AF92BF92CF92DF92EF92FF92F5
:103310000F931F93CF93DF93CDB7DEB7CA1BDB0BA1
:103320000FB6F894DEBF0FBECDBF09942A88398846
:1033300048885F846E847D848C849B84AA84B9844D
:10334000C884DF80EE80FD800C811B81AA81B98159
:10335000CE0FD11D0FB6F894DEBF0FBECDBFED016D
:103360000895FB01DC0104C08D910190801921F4C6
:1033700041505040C8F7881B990B0895FB01DC01B0
:1033800002C001900D9241505040D8F70895F9992C
:10339000FECF92BD81BDF89A992780B50895A8E126
:1033A000B0E042E050E00C940B1ADC01A40FB51F12
:1033B0004150504048F0CB01840F951F2E910E9440
:1033C000E61941505040D0F70895262FF999FECFC5
:1033D00092BD81BDF89A019700B4021639F01FBA68
:1033E00020BD0FB6F894FA9AF99A0FBE0895039685
:1033F000272F0E94E6190E94E519252F0E94E61941
:10340000242F0C94E6190196272F0E94E6190C949C
:10341000E519DC01CB01FC01F999FECF06C0F2BD34
:10342000E1BDF89A319600B40D9241505040B8F782
:103430000895F894FFCF011072100910D30FD70F21
:103440000D10DB0F11101D10E70F6B10EB0F21108B
:10345000EF0F25104A10F30F29105110F90F2F10FC
:103460003710DF0F1510E30F1910FD0F3310411047
:103470005A106910CD0F0510791005110B11F410B9
:10348000FF10111117111D1134185A1860185A180D
:0C3490006018B318D51860182C193919F1
:10349C0070010000010007123513101311130F13E4
:0434AC009291900069
:00000001FF
